:020000040800F2
:10000000D8070020410200084B2D0008612B000892
:10001000492D0008251500082132000800000000C5
:100020000000000000000000000000004F2D00084C
:1000300027150008000000004D2D0008512D000874
:100040005B0200085B0200085B0200085B0200081C
:100050005B0200085B0200085B0200085B0200080C
:100060005B0200085B0200085B0200085B020008FC
:100070005B0200085B0200085B0200085B020008EC
:100080005B0200085B0200085B0200085B020008DC
:100090005B0200085B0200085B0200085B020008CC
:1000A0005B0200085B0200085B0200085B020008BC
:1000B0005B020008F92D00085B0200085B020008E3
:1000C0005B0200085B0200085B0200085B0200089C
:1000D0005B0200085B0200085B02000815320008A2
:1000E0005B0200085B0200085B0200085B0200087C
:1000F0005B0200085B0200085B0200085B0200086C
:100100005B0200085B0200085B0200085B0200085B
:100110005B0200085B0200085B0200085B0200084B
:100120005B0200085B0200085B0200085B0200083B
:100130005B02000800000000000000005B020008F5
:100140005B0200085B0200085B0200085B0200081B
:100150005B0200085B0200085B0200085B0200080B
:100160005B0200085B0200085B0200085B020008FB
:100170005B0200085B0200080000000000000000B5
:100180005B0200085B02000800F002F800F049F88A
:100190000AA090E8000C82448344AAF10107DA45E2
:1001A00001D100F03EF8AFF2090EBAE80F0013F0EB
:1001B000010F18BFFB1A43F001031847F83600007F
:1001C00018370000103A24BF78C878C1FAD852070F
:1001D00024BF30C830C144BF04680C6070470000C1
:1001E0000023002400250026103A28BF78C1FBD840
:1001F000520728BF30C148BF0B607047662903F023
:10020000F882002070471FB503F0EEFA00F0A4FB5F
:1002100004000020002103F067F8E0601FBD10B566
:1002200010BD00F0B5FC1146FFF7EDFF03F034F808
:1002300000F0D3FC03B4FFF7F2FF03BC03F020F897
:100240000948804709480047FEE7FEE7FEE7FEE76A
:10025000FEE7FEE7FEE7FEE7FEE7FEE704480549A6
:10026000054A064B70470000E92D00088901000887
:10027000D8010020D8070020D8030020D803002090
:10028000704753EA020C00F069802DE9F04B4FF003
:100290000006002B1FBFB3FA83F503FA05F424FA16
:1002A00005F65E4012BF1643B2FA82F502FA05F473
:1002B000C5F120051EBF22FA05FC44EA0C042035D6
:1002C00056EA044C4FEA144418BF641C4FF000086F
:1002D0004FF00009904271EB030C39D3002919BF8C
:1002E000B1FA81F701FA07F6B0FA80F700FA07F6DB
:1002F000C7F120071EBF20FA07FC46EA0C0620378C
:10030000B6FBF4FCA7EB0507103F07F01F0BCBF182
:1003100020060CFA0BFB2CFA06F644BFB346002667
:10032000202FA4BF5E464FF0000B5BEA060C08BF0F
:100330004FF0010B19EB0B09ABFB027C48EB0608F5
:10034000C01B06FB02CC0BFB03CC71EB0C01C1E71D
:100350000B46024641464846BDE8F08B13B54FF0C8
:1003600000004FF00001AFF30080BDE81C40704773
:100370000FB4044910B503AA029800F0DBFA10BCD0
:100380005DF814FB180000202DE9F05F8946044653
:100390004FF0000ADFF824B1FB44C0F820A020464B
:1003A000E168884700287DD0252806D0D4E90121BE
:1003B0009047206A401C2062F1E700255F462046F6
:1003C000E16888472028064607DB312E05D2B81998
:1003D00010F8200C08B10543F1E7A80701D525F076
:1003E0000405C4F81CA00027C4F818A02A2E09D0C0
:1003F000304602F03EFF38B304EB8708303EC8F8C1
:10040000186019E059F8041B204604EB870291613B
:10041000E1688847012F064618D1E069002820DAF4
:1004200025F020051DE0D8F8180000EB800006EB51
:1004300040003038C8F818002046E1688847064672
:1004400002F017FF0028EED1012F0AD02E2E08D17E
:100450002046E16888477F1C0646022F45F02005AC
:10046000C4DBA069002803DA404245F00105A06121
:10047000E80701D025F01005A6B1A6F14100192822
:1004800002D8203645F400654A46314620462560AC
:100490004D46FFF7B3FE60B1012807D0ED1D25F0F2
:1004A000070000E007E000F1080978E705F104091A
:1004B00075E730467AE7206ABDE8F09F72340000A5
:1004C0004FF0000200B5134694469646203922BFED
:1004D000A0E80C50A0E80C50B1F12001BFF4F7AF38
:1004E000090728BFA0E80C5048BF0CC05DF804EB1A
:1004F000890028BF40F8042B08BF704748BF20F888
:10050000022B11F0804F18BF00F8012B7047704785
:1005100070477047704770472DE9FF4F0C461E46E5
:100520004FF0FF378BB0D2E90001DDF860800A9010
:100530008A46C1F30A5505B93D46002108464FF0E9
:100540000000BAF1000F00F4400005DA00EB800073
:100550004FF4400101EA50004FEA9059B9F1010F00
:1005600000DDB9460A9850EA4A000ED044F6105011
:10057000A5F2FF3545432F14B8F1000F1ED0754288
:10058000291E1EDDC9F100021CE0B8F1010F4FF079
:10059000000001D0302103E0F24305E02154401C6B
:1005A000B042FBDB30460022002121540B99C1F8F8
:1005B0000880C1E900200FB0BDE8F08FBD1B6D1CA5
:1005C000DEE74A4600DA694206A800F067FA06ABA1
:1005D00093E8070003AB83E8070050460A9900F050
:1005E00045FB8DE80700A0F500501F3800900398E8
:1005F000002D0ADD42F21F014A460844002303A9E8
:100600000390684600F0AEFD09E0A0F500504A46B0
:100610001F38002303A90390684600F0B8FD8DE859
:1006200007000004000C03D04FF0FF30410800E049
:100630001046B8F1000F03D00022009215461EE0CC
:10064000751E05D400F08CF9303262556D1EF9D557
:10065000B3460122084302D000227F1C04E0207828
:10066000302801D100227F1E002A099784D01DE086
:10067000112D07DA00F074F9303262556D1C50EA22
:100680000102F5D1084302D00098C8B10EE0002164
:10069000681E05E0235C625C63542254401E491CC2
:1006A0008142F7DBAB46A81B401E0990002004F8EE
:1006B0000B000B98099AC0F80880C0E9002B7AE774
:1006C00011264FF0000857E72DE9F04F8846044601
:1006D000D21D22F0070191B0D1E90001CDE90A0154
:1006E00002F09FFD02460B98C00F01D02D2007E0BD
:1006F0002068810701D52B2002E0202101EAC000FB
:10070000032A099001D0072A05DB0346414620460B
:1007100000F084F90BE12078800601D5E06900E063
:100720000620B8F1650F814606D0B8F1660F18D0E3
:10073000B8F1670F70D131E00020B9F1110F0090CE
:1007400001DB112301E009F101030AAA01A90CA8A8
:10075000FFF7E2FEDDE90C70002609F10105834692
:1007600047E001204B4600904FF000470AAA01A93C
:100770000CA8FFF7D1FEDDE90DB00C995D4600260F
:1007800010B909F101000D18B9EB050003D4C0F14F
:10079000FF3609F10105A5EB09002BE0B9F1010FC6
:1007A00001DA4FF001090020B9F1110F009048461D
:1007B00001DD112300E003460AAA01A90CA8FFF7F6
:1007C000ABFEDDE90C704D4600268346207800071D
:1007D0000AD4AB4500DA5D4601A8012D04DD4119BC
:1007E00011F8011C302907D04F4502DA17F1040F28
:1007F00004DA012082460FE06D1EEEE7002F02DCD6
:10080000ED1B3E4403E0781CA84200DD7D1CB81BB4
:1008100000F1010A4FF000472078000703D4AA45F1
:1008200001DB4FF0FF3A0021B7F1004F0DF1430813
:100830008DF8431024D002202B23002F01DA7F42B1
:100840002D230A21021EA0F1010000DC5FB197FBFD
:10085000F1FC97FBF1F201FB1C7C17460CF1300C0C
:1008600008F801CDEEE7A8F1010003702188090521
:1008700001D5452100E06521A0F1010800F8011C27
:1008800009980FA9A1EB0807FF1D00B1012041192C
:1008900001EBEA70A1693844081A401EA061207873
:1008A000C00602D42046AFF30080099828B1D4E9ED
:1008B00001219047206A401C20622078C00622D582
:1008C0002046AFF300801EE0002E04DBB34502DDBE
:1008D00001A8805D00E03020D4E901219047206A22
:1008E000401C2062761CAAF101005FEA000A0AD1CE
:1008F00000F032F8C0680168405CD4E901219047FB
:10090000206A401C2062281EA5F10105DCDC07E0FE
:10091000D4E9012118F8010B9047206A401C20629D
:10092000381EA7F10107F3DC2046AFF30080032057
:1009300011B041E6074B70B50D467B4400F05BF803
:100940000446284600F01CF910B14FF0FF3070BD8E
:10095000204670BD472900000048704798010020DC
:1009600030B5B0F10A024FEA900E71F100034EEA81
:10097000817EB0EB0E0061EB91014FEA101E4EEA52
:10098000017E10EB0E0041EB11114FEA102E4EEAE2
:10099000016E10EB0E0041EB11214FEA104E4EEAB2
:1009A000014E10EB0E0041EB1141401841F10001E6
:1009B0004FEAD00040EA41704FEAD10110EB8005C8
:1009C0004FEA810444EA907444EB01046D1944EB4E
:1009D0000404521BA3414FF0000348BF0A3200D564
:1009E00030BD401C41F1000130BD000001694A1CCE
:1009F00002610878704700B58FB0CDE90131002160
:100A0000059105497944CDE9031011466846FFF781
:100A1000BBFC0FB000BD0000E5FFFFFF2DE9F0417A
:100A20001F46044603260168072A01F4006004DB20
:100A300008B116A505E016A503E008B115A500E06C
:100A400015A521F010002060A069C01EA0610FB1A3
:100A5000401EA0612046AFF300804FB1D4E90121D0
:100A600038469047206A401C2062C01C206206E085
:100A7000206AFAE7D4E9012115F8010B9047761EA8
:100A8000F8D22046AFF30080BDE8F0814E414E0021
:100A90006E616E00494E4600696E66002DE9F047B2
:100AA000814616468AB0354878440DC88DE80D0059
:100AB00032487844801C03AC0DC884E80D0041F630
:100AC0009B300844372190FBF1F290FBF1F5A5F142
:100AD000800501FB12041B3C02D56442012000E0AA
:100AE0000020DFF898A080460027FA44AAF1BE0A49
:100AF0000EE0E0070AD03246684607EB47010123C3
:100B00000AEB810100F043FB8DE8070064107F1CB5
:100B1000002CEED1194F7F44AE3F19E0E80715D005
:100B200007EB04100DF1180A90E80E008AE80E0099
:100B3000C068F04201D1981908903246012306A9F5
:100B400003A800F024FB03AB83E807006D10641CCE
:100B5000002DE3D14FF0010332466946B8F1000F92
:100B600003A802D000F0FEFA01E000F010FBC9E992
:100B70000001C9F808200AB0BDE8F087F02D000098
:100B8000007B00F08000704700487047780100202B
:100B90007546FFF7F9FFAE4605006946534620F05B
:100BA0000700854618B020B5FFF758FBBDE8204088
:100BB0004FF000064FF000074FF000084FF0000B19
:100BC00021F00701AC46ACE8C009ACE8C009ACE8CC
:100BD000C009ACE8C0098D46704710B50446AFF3B4
:100BE00000802046BDE81040FFF724BB4FF0013CD9
:100BF00050F8042B51F8043B9A4221D1A2EB0C038C
:100C0000934313EACC1317D150F8042B51F8043B4B
:100C10009A4215D1A2EB0C03934313EACC130BD1E8
:100C200050F8042B51F8043B9A4209D1A2EB0C0373
:100C3000934313EACC13DBD04FF00000704700BFA2
:100C4000D01A01BAB1FA81F101F0180122FA01F0CB
:100C5000CB40C1F12001DBB2C0B2C01A2CFA01F3C3
:100C6000D11A914311EAC311E6D170475FEA400CF3
:100C700008BF91F0000F4FEA8C234FEAC12243EAEC
:100C800051514FEA1C5018BF00F5F0404FEA3000B8
:100C900018BF41F000415FEA6C5C00F02980BCF1B4
:100CA000FF3F08BF40F080407047130C06BF12049E
:100CB0004FF0100C4FF0000C130E04BF12020CF199
:100CC000080C130F04BF12010CF1040C930F04BFA6
:100CD00092000CF1020CD30F04BF52000CF1010C76
:100CE00011464FF00002A0F11F00A0EB0C0070476E
:100CF00011F0004F08BF704731F000413FF4D5AF0D
:100D00000B0C06BF09044FF0100C4FF0000C0B0E3B
:100D100004BF09020CF1080C0B0F04BF09010CF110
:100D2000040C8B0F04BF89000CF1020CCB0F04BF25
:100D300049000CF1010CCCF12003A0EB0C0022FACD
:100D400003F302FA0CF241EA030100F101007047DB
:100D500020F07F4C80EA030023F07F47ACEB0703D1
:100D600003F57C5300F0004003F1FF032DE98049B7
:100D70004FEA154B09B44FEA144325EA0B4E24EA17
:100D800003480FF2042606EB132749083E785FEA72
:100D9000320203FB0667C7F5000707FB06F64FEABA
:100DA00054374FEAD64606F1020607FB066CCCF133
:100DB000005C4FEA1C472CEA074C07FB06F40CFBCF
:100DC00006F504EB15464FEA961634BF00204FF0A7
:100DD00000404FEAD13706FB07FC4FEA1C4C0CFBE6
:100DE0000BF7D21B03FB0CF761EB07010CFB0EF7B3
:100DF000B0EB074072EB17420CFB08F734BFA2EBD5
:100E00000742B2EB074261EB17414FEA0C444FEA4D
:100E1000910706FB07FC4FEA1C4C0CFB0BF7B0EBF1
:100E2000C74072EB573203FB0CF734BFA2EBC7424B
:100E3000B2EBC74261EB57310CFB0EF7B0EBC700CA
:100E400072EB57720CFB08F734BFA2EBC702B2EB90
:100E5000C70261EB5771039F4FEA816141EA92112A
:100E600004EBCC044FEAD1374FEA826206FB07FC61
:100E700042EA90124FEA80604FEA1C4C0CFB0BF7E1
:100E8000D21B03FB0CF761EB07010CFB0EF7B0EB79
:100E9000074072EB17420CFB08F734BFA2EB074286
:100EA000B2EB074261EB17414FEA8C554FEA9107CD
:100EB00004EB9C2406FB07FC4FEA1C4C0CFB0BF7D5
:100EC000B0EBC74072EB573203FB0CF734BFA2EB19
:100ED000C742B2EBC74261EB57310CFB0EF7B0EBE8
:100EE000C70072EB57720CFB08F734BFA2EBC702C6
:100EF000B2EBC70261EB577115EB4C254FEA8161EC
:100F000041EA92114FEA82624FEAD13742EA9012E7
:100F100006FB07FC44F100044FEA80604FEA1C4CDA
:100F20000CFB0BF7D21B03FB0CF761EB07010CFB6F
:100F30000EF7B0EB074072EB17420CFB08F734BF1B
:100F4000A2EB0742B2EB074261EB174115EB1C1510
:100F50004FEA813141EA92414FEA823242EA9042BD
:100F60004FEA80304FEA0C7644F1000448EA03432C
:100F70004EEA0B484FF0000EB2EB080C71EB030782
:100F800024BF624639464EEB0E0E4FF0000B0018A0
:100F9000524149414BEB0B0BB2EB080C71EB0307D1
:100FA0007BF1000B24BF624639464EEB0E0E4FF02C
:100FB000000B0018524149414BEB0B0BB2EB080CF4
:100FC00071EB03077BF1000B24BF624639464EEB01
:100FD0000E0E51EA020718BF46F0010616EB0E7618
:100FE00055F1000254F1000103D5BDE88901BDE8C7
:100FF0000088BDE88901BDE80048B619524141EBBF
:101000000101A3F10103704780807F7E7D7C7B7AA4
:101010007978777676757473727171706F6E6E6DA4
:101020006C6C6B6A6A69686867666665646463634A
:1010300062616160605F5F5E5E5D5D5C5C5B5B5AD0
:101040005A5959585857575656555555545453533D
:1010500052525251515050504F4F4F4E4E4D4D4D98
:101060004C4C4C4B4B4B4A4A4A49494948484847E3
:101070004747474646464545454444444443434321
:101080004342424242414141002B9C4630D47700CA
:101090002BD01CB54FEA370703B44FF010004FF0C8
:1010A0001001BAF1000F06D0BCF1000FDCBF40F018
:1010B000080040F008014FF000000FBCBDE81040F0
:1010C0000BF1010BBBF1010F08BF5FEA170722BF4D
:1010D00012F1010211F101014FF0004143F100034F
:1010E00000F0004043EA00007047F9D35708D0E70A
:1010F00046EA064613F1400F4FEA16461FDD13F18C
:10110000200FDFBF16430A46002120335B42BED0CA
:10111000C3F1200746EA064602FA07F74FEA1646E9
:1011200046EA0706C3F1200722FA03F201FA07F79D
:1011300021FA03F14FF0000342EA0702A7E746EA6B
:10114000020646EA06464FEA164646EA0106BCBFD4
:1011500046EA0646360C4FF000034FF000024FF00F
:10116000000194E72DE9804C9A46934670B491E8CB
:10117000380007C831EA400C48BF34EA430C03D5B5
:10118000FFF7E6FDFFF780FFF0BCBDE8008C2DE91E
:10119000804C9A46934670B491E8380007C810F026
:1011A000804F08BF13F0804F03D100F005F8FFF720
:1011B0006BFFF0BCBDE8008C20F07F4780EA0300A5
:1011C00023F07F4C07EB0C03A3F57C5300F00040A9
:1011D000A3F1FE0392F0000F00F0B38095F0000F32
:1011E00000F077802DE901494FEA11404FEA14469B
:1011F00021EA004800FB06FC24EA064708FB06F645
:1012000007FB08F800FB07F718EB06484CEB164CF9
:101210004FEA124B18EB07484FEA15464CEB1740C4
:1012200022EA0B4E0BFB06FC25EA06470EFB06F6F0
:1012300007FB0EFE0BFB07F71EEB064E4CEB164CA6
:101240004FF000061EEB074E4CEB174B18EB0B084C
:1012500040F1000018EB0E0B58EB000840F10000C5
:101260008F1A4FF000013CBFC943661B14BFB5EB9A
:10127000040C00213CBFC943F61B4FEA17444EEA59
:101280008E0E27EA04454FEA1C4704FB07622CEA4E
:10129000074C05FB07F70CFB05F604FB0CFC16EBF3
:1012A000074642EB174216EB0C4642EB1C421BEB87
:1012B000060658EB0202414146EA9E0601D5BDE80A
:1012C0000189B619524141EB0101A3F10103BDE8C7
:1012D00001894FEA14454FEA114724EA054621EAFD
:1012E000074C05FB07F406FB07F70CFB06F105FBB3
:1012F0000CFC11EB074144EB17444FEA124711EB8A
:101300000C4144EB1C4422EA074C05FB07F206FBA8
:1013100007F70CFB06F605FB0CFC16EB074642EB49
:10132000174216EB0C4642EB1C456A1854F10001BB
:1013300048BF7047B619524141EB0101A3F10103C7
:10134000704795F0000F37D04FEA11424FEA14472B
:1013500021EA024624EA074C02FB07F106FB07F7E5
:101360000CFB06F402FB0CFC14EB074441EB1741A9
:101370004FEA154714EB0C4441EB1C4125EA074C9E
:1013800002FB07F506FB07F70CFB06F602FB0CFC5D
:1013900016EB074645EB174516EB0C4645EB1C4292
:1013A000121951F1000148BF7047B619524141EB83
:1013B0000101A3F1010370474FEA14454FEA1147B9
:1013C00024EA054621EA074C05FB07F106FB07F76F
:1013D0000CFB06F24FF0000605FB0CFC12EB07427B
:1013E00041EB174112EB0C4251EB1C4148BF7047D7
:1013F000921841EB0101A3F101037047464910B572
:101400004A6822F440324A604A6843681A434A6094
:1014100001684A6822F480724A6001684A68036978
:1014200042EA03224A6001684A6822F040724A6038
:1014300001684A6883681A434A6001688A6822F42E
:1014400000628A6001688A68C3681A438A60816A98
:101450006FF07062D14201688A6822F070628A601F
:1014600001688A680CD0836A1A438A6001688A68B6
:1014700022F040528A6001688A68C36A1A4301E018
:1014800022F040528A6001688A6822F002028A6073
:1014900001688A68037E42EA43028A6090F820105D
:1014A000002901684A680FD042F400624A6001686E
:1014B0004A6822F460424A6001684A68174C436AED
:1014C00004EB43331A4301E022F400624A600168EE
:1014D000CA6A22F47002CA620168CA6A838B104C1D
:1014E00004EB03531A43CA6201688A6822F400724B
:1014F0008A6001688A6890F8303042EA43228A6044
:1015000001688A6822F480628A6001688A6840699A
:1015100042EA8020886010BD0023014000E0FFFF08
:101520000000F0FFFEE7704772B6FEE778B50024D2
:10153000009490F83C20012A19D0012280F83C2028
:101540000A6807230568092A13D9EE680A3A02EBEC
:10155000420293409E43EE600B788A680A3B03EB9D
:1015600043039A400368DD682A43DA6010E00220F2
:1015700078BD2E6902EB420293409E432E610B78A8
:101580008A6803EB43039A4003681D692A431A6182
:101590004A681F23072A13D205686E6B521E02EB9E
:1015A000820293409E436E630B790A885B1E92B25F
:1015B00003EB83039A4003685D6B2A435A6327E079
:1015C00005680D2A12D22E6BD21F02EB82029340C5
:1015D0009E432E630B790A88DB1F92B203EB8303D1
:1015E0009A4003681D6B2A431A6311E0EE6A0D3AB4
:1015F00002EB820293409E43EE620B790A880D3B18
:1016000092B203EB83039A400368DD6A2A43DA62ED
:10161000164B0568144A9D4206D10D68122D03D160
:10162000556845F48005556005689D4218D10B68E2
:10163000102B01D0112B13D1536843F400035360D6
:10164000096810290CD10A490A4A0968B1FBF2F16C
:1016500001EB8101490000E0491E00910029FBD106
:1016600080F83C40002078BD00230140002001406C
:101670002800002040420F00006C70470068C06CDA
:10168000704770B504004FF0000503D0206C0026B1
:1016900010B107E0012070BD204600F01DF866641F
:1016A00084F83C60206CC00610D4206C20F4885074
:1016B00040F0020020642046FFF7A0FE6664206C24
:1016C00020F0020040F00100206400E0012584F8D1
:1016D0003C60284670BD000010B586B00446142159
:1016E0006846FEF7EDFE1149206888421CD110487B
:1016F0000021026842F480720260006800F4807089
:1017000005900B481438026842F00202026000683B
:1017100000F002000590012000900320CDE90101B6
:101720006946044800F0E2F806B010BD0020014010
:10173000443802400004024018B50021009190F89E
:101740003C20012A07D0012280F83C2002689368DF
:10175000DB0702D011E0022018BD936843F00103BB
:1017600093602E4A2E4B1268B2FBF3F202EB420258
:1017700000E0521E0092002AFBD102689368DB074A
:1017800042D0036C40F20164A34343F480730364CA
:1017900053685B0505D5036C23F4005343F4805371
:1017A0000364036CDB0404D5436C23F00603436439
:1017B00000E0416480F83C101A496FF02203136086
:1017C00049680068CA06184906D0884224D1816851
:1017D00011F0405F13D01FE08842F8D0134A9042C6
:1017E00003D1D1F80423D206F1D0114A904213D18B
:1017F000D1F8041301F01F011029E8D30CE081682F
:1018000041F08041816007E0016C41F0100101640A
:10181000416C41F001014164002018BD2800002006
:1018200040420F0000230140002001400021014000
:10183000002201402DE9F0410446876D00F05CF97B
:10184000064694F835000025022806D08020606501
:1018500084F834500120BDE8F0812068016821F04F
:10186000160101602068416921F080014161206C0E
:1018700008B9A06C20B12068016821F0080101605E
:101880002068016821F0010101600CE000F034F9EA
:10189000801B052807D920206065032084F83500C7
:1018A00084F83450D7E720680068C007EED194F878
:1018B0005C103F208840B860012084F8350084F82F
:1018C00034500020C7E790F83510022903D080215A
:1018D000416501207047052180F8351000680168D6
:1018E00021F0010101600020704700002DE9F84F50
:1018F000DFF8BCA10022012503264FF00F090AF1F1
:10190000040BAAF1040E00BF0B6805FA02F4234091
:10191000A34270D10F7907F00307012F01D0022FE6
:1019200016D187684FEA420806FA08FC27EA0C0736
:10193000D1F80CC00CFA08FC4CEA070CC0F808C03F
:101940004768A7430C79C4F3001494403C434460B7
:101950000C79E443A4070AD0C4684FEA420C06FAA3
:101960000CF7BC438F6807FA0CF72743C7600C7964
:1019700004F00304022C12D1D40800EB840CDCF830
:1019800020405707FF0E09FA07F824EA0804D1F8A7
:10199000108008FA07F848EA0408CCF820800468A8
:1019A0004FEA420C06FA0CF7BC430F7907F0030725
:1019B00007FA0CF7274307604C6814F4403F70D0D7
:1019C0003C4C276847F480472760246822F00307CF
:1019D00004F480440094384C07EB040CDCF808480D
:1019E00097074FEA177809FA08F7BC43334FB84214
:1019F00002D1002724E054E0314FB84201D1012741
:101A00001EE0304FB84201D1022719E02E4FB842F4
:101A100001D1032714E02D4FB84201D104270FE074
:101A20002B4FB84201D105270AE02A4FB84201D115
:101A3000062705E0284FB84201D1072700E0082714
:101A400007FA08F72743CCF80878DAF80040574639
:101A5000D1F804C09C435FEACC2C00D51C433C6009
:101A6000DBF800405F46D1F804C09C435FEA8C2C51
:101A700000D51C433C60DEF800407746D1F804C036
:101A80009C435FEA8C3C00D51C433C60084F083FF8
:101A90003C68D1F804C09C435FEACC3C00D51C43B1
:101AA0003C60521C102AFFF42FAFBDE8F88F0000F5
:101AB000083C014044380240003001400000024030
:101AC0000004024000080240000C024000100240E6
:101AD0000014024000180240001C0240426921EA42
:101AE00002030A4043EA0241816170470AB1816101
:101AF00070470904FBE70000014880687047000058
:101B00001C000020024881680278114481607047FF
:101B10001C0000200B4810B5016841F40071016001
:101B2000016841F480610160016841F480710160E5
:101B3000032000F06FF80F2000F006F800F024F802
:101B4000002010BD003C024070B50D4D04464FF41E
:101B50007A712878B1FBF0F00A490968B1FBF0F01E
:101B600000F00AFB48B9102C07D200222146501E73
:101B700000F030F800206C6070BD012070BD0000E6
:101B80001C000020280000200A4808B5016841F424
:101B900080410160006800F4804000900548001F0B
:101BA000016841F080510160006800F080500090B1
:101BB00008BD000044380240002809DB00F01F0285
:101BC000012191404009800000F1E020C0F800119F
:101BD00070470000F0B40E4B1B680C46C3F30223A1
:101BE000C3F10705042D00D90425191D072901D2C9
:101BF000002300E0DB1E012606FA05F1491E214004
:101C000099409E40761E16403143F0BC01F021BB46
:101C10000CED00E0064900F0070208684FF6FF03EC
:101C2000184040EA0220034A104308607047000051
:101C30000CED00E00000FA052DE9F0470E46050026
:101C400065D0DFF81481D8F80000F7B200F0070083
:101C5000B04207D288F80070D8F8000000F0070002
:101C6000B04254D128683D4C810712D5400703D5B6
:101C7000206840F4E05020602878000703D52068F1
:101C800040F4604020602068A96820F0F00008431C
:101C900020602878C0072DD03049686808390128AD
:101CA00012D0022813D0032811D00968890700290F
:101CB0002DDA216821F0030101432160FFF71CFFA9
:101CC000814641F2883A0EE009688903EFE7096826
:101CD0008901ECE7FFF710FFA0EB0901514502D99C
:101CE0000320BDE8F0872068696800F00C00B0EBC5
:101CF000810FEFD1D8F80010404601F00701B14242
:101D000007D90770006800F00700B04201D0012039
:101D1000E7E72878400705D52068E96820F4E05017
:101D2000084320602878000706D52068296920F438
:101D3000604040EAC100206000F038F82168084A9D
:101D4000C1F30311515CC8400649086006480068A9
:101D5000FFF7FAFE0020C4E7003C024008380240CA
:101D6000F63700082800002020000020044805491C
:101D700000680968044AC1F38221515CC840704779
:101D800028000020083802400638000804480549A9
:101D900000680968044AC1F34231515CC840704789
:101DA000280000200838024006380008154810B501
:101DB000006810F00C02144813D04110042A0FD010
:101DC000082A0ED10F4C241F2268236802F03F021C
:101DD0005B0207D52068C0F38810A0FB010106E074
:101DE000084610BD2168C1F38811A1FB0001002342
:101DF000FEF747FA2168C1F30141491C4900B0FBD5
:101E0000F1F010BD083802400024F4002DE9F84F2D
:101E100004006ED02078DFF84C93C007A9F10405C8
:101E20004AD009F104000168C1F38101012908D0F9
:101E30000068C0F3810002280AD1D9F800004002EE
:101E400006D52868800337D560680028E1D033E0E4
:101E50006068B0F5803F10D0B0F5A02F286810D092
:101E600020F480302860286820F480202860606892
:101E7000A8B1FFF741FE06460DE0286840F4803027
:101E8000F4E740F480202860F7E700BFFFF734FE56
:101E9000801B642873D828688003F7D50CE0FFF70F
:101EA0002BFE064605E000BFFFF726FE801B6428D8
:101EB000F0D828688003F7D42078DFF8AC82800758
:101EC0004FF0000A3ED5A748001D016811F00C0F25
:101ED00008D00068C0F3810002280BD1D9F80000B7
:101EE000400207D42868800716D5E068012800D191
:101EF00012E033E1E068B8B10120C8F80000FFF754
:101F0000FBFD064605E000BFFFF7F6FD801B02283B
:101F1000C0D828688007F7D52868216920F0F80024
:101F200040EAC10028600DE0C8F800A0FFF7E4FD1A
:101F3000064604E0FFF7E0FD801B02281FD8286852
:101F40008007F7D42078000722D5864F874861693B
:101F5000703771B101210160FFF7CEFD064604E044
:101F6000FFF7CAFD801B022809D838688007F7D51B
:101F70000EE0C0F800A0FFF7BFFD064605E082E0D6
:101F8000FFF7BAFD801B02287DD838688007F7D498
:101F90002078400768D5DFF8CCB100270BF13C0B67
:101FA000DBF80000C0000BD4DBF8001041F08051DA
:101FB000CBF80010DBF80000012700F08050009003
:101FC0006B4E3068C00510D4306840F480703060CB
:101FD000FFF792FD009005E0FFF78EFD0099401A93
:101FE000022850D83068C005F6D55E4EA0686C3621
:101FF00001280FD00528306810D020F00100306093
:10200000306820F004003060A068B8B1FFF774FDBC
:1020100000900FE0306840F00100F4E740F0040069
:102020003060F7E7FFF768FD0099411A41F2883008
:10203000814266D830688007F4D50EE0FFF75CFD7A
:10204000009007E0FFF758FD0099411A41F28830EF
:10205000814256D830688007F4D42FB1DBF80010E5
:1020600021F08051CBF80010A069C8B33D49091D8B
:102070000968C1F3810102294AD00228504607D0DD
:10208000C8F8600000E03CE0FFF736FD04463BE0A6
:102090004746C8F86000FFF72FFD064605E000BF81
:1020A000FFF72AFD801B02282BD828688001F7D46F
:1020B000D4E907010843A16A2E4A490802EB01410D
:1020C000626A41EA8211084394F82C1040EA0161E7
:1020D000C9F8001001203866FFF70EFD044606E03F
:1020E0003EE000BFFFF708FD001B022809D8286862
:1020F0008001F7D534E000BFFFF7FEFC001B02288B
:1021000002D90320BDE8F88F28688001F4D427E0C5
:102110000128F7D0D9F80000E26900F4800191426B
:102120001CD1226A00F03F01914217D147F6C071DD
:10213000626A0140B1EB821F10D1A26A4FF0FF33F7
:1021400000F4403103EB5202B1EB024F06D194F898
:102150002C1000F07060B0EB016F01D00120D1E7CE
:102160000020CFE70438024000004742800E47427B
:10217000007000400000FFFF10B5401EB0F1807FEE
:1021800001D3012010BD4FF0E02460610F216017E2
:1021900001F05FF80020A06107202061002010BD41
:1021A0007047704770B590F83C20012A32D0012466
:1021B00080F83C40022280F83D2003685A689D6800
:1021C00022F070060A6832435A60134B02689A4242
:1021D00014D0B2F1804F11D0104B9A420ED0104B58
:1021E0009A420BD00F4B9A4208D00F4B9A4205D01F
:1021F0000E4B9A4202D00E4B9A4204D1496825F008
:1022000080031943916080F83D40002180F83C1024
:10221000084670BD022070BD00000140000400406F
:1022200000080040000C0040000401400040014054
:102230000018004010B5040003D094F83D0010B120
:1022400007E0012010BD002084F83C00204600F08B
:102250001FF8022084F83D00211D206800F0D2FD07
:10226000012084F8460084F83E0084F83F0084F89A
:10227000400084F8410084F8420084F8430084F868
:10228000440084F8450084F83D00002010BD0000A3
:1022900008B500680B49884212D10B48016841F02B
:1022A000020101600068002200F0020000900D2190
:1022B0001D20FFF78FFCBDE808401D20FFF77CBC08
:1022C00008BD0000000400404038024090F83D1076
:1022D000012901D001207047022180F83D100168DA
:1022E000CA6842F00102CA6000681149884214D0ED
:1022F000B0F1804F11D00F4988420ED00E4988426C
:102300000BD00E49884208D00D49884205D00D49AE
:10231000884202D00C49884204D1816801F007014B
:10232000062903D0016841F00101016000207047D7
:10233000000001400004004000080040000C004084
:1023400000040140004001400018004070B5044600
:1023500090F83C000025012817D0012684F83C6045
:10236000022084F83D002068826822F0770222F47F
:102370007F4282600868502838D00DDC20284FD07A
:1023800005DC90B3102811D14AE0022070BD30283E
:1023900046D040280AD13BE060282FD070280DD0CD
:1023A000B0F5805F03D0B0F5005F12D0012584F84E
:1023B0003D60002084F83C00284670BDCB68D1E920
:1023C0000121206800F082FD2068816841F07701DA
:1023D00009E0CB68D1E90121206800F077FD206891
:1023E000816841F480418160E1E719E0CA68496889
:1023F000206800F07DFD5021206806E0CA68496829
:10240000206800F086FD6021206800F069FDCEE7BD
:10241000CA684968206800F06BFD40212068F4E735
:10242000226801461046F0E7704770B50446006820
:1024300001694FF00005C943890715D4C168C94334
:10244000890711D4E91E0161012020772068806985
:102450008007204602D0FFF7E7FF04E000F098F87D
:10246000204600F096F8257720680169C94349079E
:1024700017D4C168C943490713D46FF0040101613F
:10248000022020772068806910F4407F204602D027
:10249000FFF7CAFF04E000F07BF8204600F079F86F
:1024A000257720680169C943090716D4C168C94363
:1024B000090712D46FF00801016104202077206819
:1024C000C0698007204602D0FFF7AEFF04E000F0AD
:1024D0005FF8204600F05DF8257720680169C94360
:1024E000C90617D4C168C943C90613D46FF01001D7
:1024F0000161082020772068C06910F4407F2046E1
:1025000002D0FFF791FF04E000F042F8204600F00F
:1025100040F8257720680169C943C90708D1C16817
:10252000C943C90704D1891E0161204600F032F871
:1025300020680169C943090609D4C168C94309066D
:1025400005D46FF0800101612046FFF729FE206865
:102550000169C943490609D4C168C943490605D47C
:102560006FF040010161204600F05AF820680169CF
:10257000C94389060BD4C168C943890607D46FF0E3
:10258000200101612046BDE87040FFF70ABE70BD22
:102590007047704710B500681549884227D1154823
:1025A000FFF7CAF81348FFF767F81248FFF766F815
:1025B000114CA06001F006F89FED101B53EC112B9D
:1025C00000F0A8FE9FED0F1B53EC112B01F00EF84D
:1025D000C4E9040101210D48FFF780FA94ED040BD2
:1025E000BDE8104053EC102B09A0FDF7C1BE10BD93
:1025F00000040040600000200000002000000000F7
:1026000000FEAF4000000000006AE8400000024009
:10261000766F6C746167653A25302E38660D0A0056
:102620007047704770470000F8B5016804460868B5
:10263000CA684B6910F00F0F4FF0000559D003F036
:10264000010602F49077374365D0C10705D0D10564
:1026500003D5216C41F001012164410705D5D9075B
:1026600003D0216C41F002012164810705D5D9070F
:1026700003D0216C41F004012164010707D502F069
:102680002001314303D0216C41F008012164216C09
:1026900000293AD0800604D5900602D5204600F0E5
:1026A00079FC20684069216CC0F38010090700D4D0
:1026B00060B3204600F047FC20684069400621D501
:1026C0002068143050E8001F21F0400140E800125B
:1026D000002AF5D1A06BA8B16C490165A06BFFF78A
:1026E000F2F8002811D0A06B016D01B0BDE8F040F8
:1026F000084783060FD593060DD52046BDE8F84060
:1027000000F048BC2046FFF78DFFF8BD2046FFF7DC
:1027100089FF2564F8BD266B2023012E79D1C606DA
:1027200077D5D60675D50868486800904869400690
:1027300040D5A16B086840680004000CEAD0A28D67
:102740008242E7D9E085C869B0F5807F2DD0206846
:102750000C3050E8001F21F4807140E80012002A7C
:10276000F5D12068143050E8001F21F0010140E845
:102770000012002AF5D12068143050E8001F21F023
:10278000400140E80012002AF5D184F83E3025636C
:1027900020680C3050E8001F21F0100140E80012C2
:1027A000002AF5D1A06BFFF745F8A08DE18D401A06
:1027B00081B229E0A08DE18D401A81B2E08D002820
:1027C000A8D00029A6D020680C3050E8002F22F4B1
:1027D000907240E80026002EF5D12068143050E8B1
:1027E000002F22F0010240E80026002EF5D184F8E7
:1027F0003E30256320680C3050E8002F22F0100294
:1028000040E80023002BF5D12046FFF70AFFF8BD72
:10281000FFE705062BD5150629D594F83D0021289C
:10282000F5D1A068B0F5805F01D12069B0B1206A10
:10283000411C2162216800784860E08C401E000441
:10284000000CE084E3D12068C16821F08001C16000
:102850002068C16841F04001C160D8E7206A008863
:10286000C0F308004860206A801C2062E5E740064B
:10287000CDD55006CBD5CA68204622F04002CA60AA
:1028800084F83D3000F06BF9C1E70000372F0008F5
:1028900070B5040004D094F83D00002510B106E0A6
:1028A000012070BD84F83C50204600F023F824201D
:1028B00084F83D002068C16821F40051C1602046C1
:1028C00000F0C8FB2068016921F490410161206893
:1028D000416921F02A0141612068C16841F4005139
:1028E000C1602564202084F83D0084F83E0000206B
:1028F00070BD000070B586B0044614216846FDF72F
:10290000DFFD284E226800212748022303240725E3
:10291000B2421DD1244A1432166846F010061660E1
:10292000126802F010020592026842F00102026091
:10293000006802AA00F00100059082E832006002FF
:10294000CDE9000369461948FEF7D0FF06B070BD17
:10295000174EB242FAD1144A1032166846F4802655
:102960001660126802F480220592026842F00402A6
:102970000260006802AA00F00400059082E83200BC
:102980004FF44060CDE9000369460A48FEF7AEFF08
:10299000002202212720FFF71DF92720FFF70CF95D
:1029A000D4E700000010014030380240000002402F
:1029B000004800400008024090F83E30202B0ED125
:1029C00059B152B190F83C30012B08D0012380F866
:1029D0003C300023036300F0C3BB0120704702209A
:1029E0007047000070B52DED028B0122224923486B
:1029F000FFF7E2FF2048224D0446017860882E2927
:102A0000295400D1A080A18801292FD0491D8842D6
:102A10002CD101211B48FFF761F81B48FEF78CFE03
:102A20001948FEF729FE1848FEF728FE00F0CAFDF7
:102A30009FED161B53EC112B00F06CFC9FED151B4A
:102A400053EC112B00F0D2FD41EC180BA0884FF491
:102A50007A73291808221148C91E00F027F853EC90
:102A6000182B0FA0FDF784FC002060806088401CBC
:102A70006080BDEC028B70BD00000020340100209E
:102A80002C00002000000240600000200000000038
:102A900000FEAF4000000000006AE840F0000020A7
:102AA0002020202025302E38660D0A002DE9F8431D
:102AB000044690F83D001F4616460D4620284CD18E
:102AC000C5B1BEB194F83C00012846D0012084F87D
:102AD0003C004FF00008C4F84080212084F83D00FD
:102AE000FFF70AF8A6848146E684A068B0F5805F07
:102AF00003D004E00120BDE8F883206928B12E4608
:102B00005FF0000584F83C800EE00026FAE78021A3
:102B1000204600F042FBA0B9AEB116F8010B2168C7
:102B20004860E08C401EE084E08C4B464FF0000291
:102B300000970028EBD14FF04001204600F02DFB1C
:102B400030B10320D7E735F8020BC0F30800E6E701
:102B5000202084F83D000020CDE70220CBE770471D
:102B6000FEE700001FB50021164800910191029177
:102B7000134A039102604FF48032C0E901210161E0
:102B8000017680F82010104AC0E90A210124C461AE
:102B9000C16080F830104461FEF773FD08B1FEF7A4
:102BA000C3FC0820CDE900040620029069460548D0
:102BB000FEF7BCFC002801D0FEF7B6FC1FBD0000EC
:102BC00000200140600000200100000FF0B587B038
:102BD00014216846FDF774FC21480024016841F087
:102BE00080010160016801F080010591016841F0F8
:102BF00001010160016801F001010591016841F0E6
:102C000002010160016801F002010591016841F0D3
:102C1000040101600068134E00F0040005900022DA
:102C200001213046FEF762FF0F4FB51400222946FE
:102C30003846FEF75BFF01200090CDE90104032038
:102C4000039069463046FEF751FE11200095CDE90C
:102C50000104694638460394FEF748FE07B0F0BD0C
:102C600030380240000002400008024010B586B033
:102C70000024184800940194029403940494144985
:102C80000594016041F2BF21C0E9011442F20F71C5
:102C9000C0E9031480218161FFF7CCFA08B1FEF787
:102CA00043FC4FF48050009069460A48FFF74EFB02
:102CB00008B1FEF739FC049404A906480594FFF70F
:102CC00071FA002801D0FEF72FFC06B010BD0000FD
:102CD00000040040A80000200C4810B50A4901601B
:102CE0004FF4E1314160002181600C22C160C0E9F4
:102CF00004128161C161FFF7CBFD002803D0BDE85C
:102D00001040FEF711BC10BD00100140F000002083
:102D10000C4810B50A4901604FF41651416000217A
:102D200081600C22C160C0E904128161C161FFF7BA
:102D3000AFFD002803D0BDE81040FEF7F5BB10BD85
:102D40000048004034010020FEE7FEE7704770476E
:102D5000FEF7D8BE30B593B030216846FDF7B0FB22
:102D600014210CA8FDF7ACFB1D480025016841F0BB
:102D700080510160006800F080501190194801688E
:102D800041F4804101600068022400F48040119009
:102D900001200090000401908001CDE9064008AABE
:102DA0000420A82182E813000B906846FFF72EF854
:102DB00008B172B6FEE70CA90F2081E831004FF48C
:102DC000A0500F904FF48050109005210CA8FEF7F2
:102DD00033FF002801D072B6FEE713B030BD00000B
:102DE00040380240007000400248016841F4700120
:102DF0000160704788ED00E00148FFF716BB000056
:102E0000A8000020F0B50268254C264D264E274F1D
:102E1000274B4FF0804CA04209D0604507D0A84214
:102E200005D0B04203D0B84201D0984204D122F07C
:102E3000700E4A6842EA0E02A0421BD0604519D0CB
:102E4000A84217D0B04215D0B84213D0984211D042
:102E5000184DA8420ED0184DA8420BD0174DA842CD
:102E600008D0174DA84205D0164DA84202D0164DE5
:102E7000A84203D122F44075CA682A434D6922F062
:102E800080022A4302608A68C2620A688262A042A3
:102E900001D0984201D10969016301214161F0BD6E
:102EA000000001400004004000080040000C004009
:102EB000000401400040014000440140004801403E
:102EC00000180040001C00400020004010B584683D
:102ED00042EA032224F47F440A432243826010BD65
:102EE000826822F070020A4342F007018160704755
:102EF00010B5036A046A24F001040462846924F0B2
:102F0000F00444EA021423F00A020A4384610262D4
:102F100010BD10B5036A23F0100303628369046ACD
:102F200023F4704343EA023224F0A00343EA011180
:102F30008261016210BD10B5806B0021C185C18422
:102F4000FFF770FB10BD01680C3151E8002F22F42F
:102F5000907241E80023002BF5D10168143151E84B
:102F6000002F22F0010241E80023002BF5D1016B74
:102F7000012909D101680C3151E8002F22F010021B
:102F800041E80023002BF5D1202180F83E100021DC
:102F90000163704708B590F83E10222901D0022045
:102FA00008BD82684FF480539A4201D1016921B172
:102FB000816A9A421BD04AB10AE00268816A52686B
:102FC000C2F308020A80816A891C08E0026972B1B2
:102FD0000268526802F07F020A70816A491C8162AD
:102FE000C18D491E0904090CC18503D019E002688E
:102FF0005268F1E70168CA6822F02002CA600168DD
:10300000CA6822F48072CA6001684A6922F001022B
:103010004A61202180F83E10016B012903D0FFF79F
:10302000E1FC002008BD0021016301680C3151E87A
:10303000002F22F0100241E80023002BF5D1016897
:103040000A68D20602D50A6849680091818DFFF7A7
:10305000E8FAE6E770B5044600680169E26821F421
:103060004051114301612169A068E2690843616927
:10307000114308432168CA6849F20C639A4302432A
:10308000CA6020684169A26921F44071114341611D
:1030900031492068884202D03049884202D1FEF787
:1030A00075FE01E0FEF762FEE26900231921642546
:1030B0003226B2F5004F626828D0A0FB0101930FC1
:1030C0009200FDF7DEF80146B0FBF5F06FF0180254
:1030D000504301EB800006EB0010B0FBF5F000F070
:1030E000F002B1FBF5F002EB0012B1FBF5F06FF06E
:1030F0001803584301EB800006EB0010B0FBF5F01D
:1031000000F00F0021681044886070BDA0FB010131
:1031100092185B41FDF7B5F80146B0FBF5F00201EE
:10312000B1FBF5F06FF01803584301EB800006EB9C
:10313000C000B0FBF5F000F0F80002EB4002B1FB7C
:10314000F5F0584301EB800006EBC000B0FBF5F052
:1031500000F00700D6E70000001001400014014015
:1031600081628285C28500210164222280F83E208E
:1031700080F83C10016921B10168CA6842F480728C
:10318000CA6001684A6942F001024A610068C16888
:1031900041F02001C160002070472DE9F0419846C0
:1031A00017460E460446069D27E0681C25D02DB123
:1031B000FEF7A2FCA0EB0800A8421ED920680C3044
:1031C00050E8001F21F4D07140E80012002AF5D128
:1031D0002068143050E8001F21F0010140E800127F
:1031E000002AF5D1202084F83D0084F83E0000201C
:1031F00084F83C000320BDE8F0812068006836EACE
:10320000000004D00020B842CFD00020F3E7012016
:10321000F9E700000148FFF707BA00003401002079
:10322000FEE703B401984100009850EAC12018BF9E
:1032300004204A0D18BF40F0010040F2FF72B2EBCB
:10324000515F08BF40F00200012808BF052002B00E
:1032500070470907090E002804DB00F1E02080F820
:103260000014704700F00F0000F1E02080F8141DFA
:10327000704730380A2801D201207047002070477B
:103280007047000003490A685206FCD5C2B24A6082
:103290007047000000100140FEF73CFCFFF75AFDAC
:1032A000FFF794FCFFF718FDFFF7E0FCFFF75AFC6F
:1032B000FFF72EFD0548FFF709F805A0FDF758F8C0
:1032C000012207490748FFF777FBFEE7A800002027
:1032D00048656C6C6F2C776F726C64210D0A00006E
:1032E000010000203401002010B500290AD0087820
:1032F000002807D005487844FDF778FC002801D065
:10330000002010BD0248784410BD0000DE0500001A
:10331000D60500002DE9C04130B4DFF8A0C23CEA78
:10332000111418BF3CEA131400F0EC8081EA030585
:103330001CEA111444EAD57418BF1CEA131500F0F6
:10334000C780A4EB05044FF0004545EAC12145EADA
:10335000C32341EA505143EA525304F17F74994226
:1033600004F500344FEAC0204FEAC22208BF904261
:1033700000F09C804FEA13650FF24016765D4FEA2D
:10338000134506FB05F7C7F1807706FB07F74FEA01
:10339000D737A7FB03687642C8F58038A7FB06CE6F
:1033A00038BFA8F1010807FB08E64FF0000EA6FBA6
:1033B000028CE6FB03CEDCF1000CCEF1004E38BFF0
:1033C000AEF1010EA6FB0C584FF000074FF00005C0
:1033D000E6FB0E87A1FB08C6A0FB07CE16EB0E0688
:1033E00045F10005E1FB076515F1E04E7EBFA4F550
:1033F00080345FEA46066D4116F1800745F100050D
:103400004FEA17274FEA066647EA0567A6F1DE4648
:10341000B6F1805F4FEA15251FD9384624F0010C1C
:1034200005EBC471BCF1FE6F01EB0C1102D8F0BCCE
:10343000BDE8008124425CBF01F5801E9EEAC47F86
:1034400002D4F0BCBDE80081244238D4F0BCA1F124
:10345000C041BDE8004100F0C1B94FEAD22242EAC2
:1034600043524FEAD323A7FB02864FEAD02040EA1B
:10347000415007FB03661EEA0E0F4FEAD12105FB00
:10348000026658BFA6EB0056B6EB00564FEA520E46
:103490004EEAC37E18EB0E0E56EB530EBDD518EB5D
:1034A00002085E417F1C55F10005B6E74FF4801518
:1034B0004FF000074FF000064FF00008ADE7F0BCFA
:1034C0004FF0000001F1C04101F00041BDE8008172
:1034D00011EA0C1F0CEA131500D00CE013EA0C1FC4
:1034E00000F025804FF00000F0BC81EA030101F0FC
:1034F0000041BDE80081F0BCBDE8004181EA030164
:1035000000F06CB9F0BCBDE8004170B500F018F9EE
:10351000097EFC3E00F007B881EA03014FF000008D
:1035200001F00041704781EA030100F057B9F0BC97
:10353000BDE800414FF0000021497047FFFDFBF955
:10354000F7F5F4F2F0EEEDEBE9E8E6E4E3E1E0DED6
:10355000DDDBDAD8D7D5D4D3D1D0CFCDCCCBCAC848
:10356000C7C6C5C4C2C1C0BFBEBDBCBBBAB9B8B76F
:10357000B6B5B4B3B2B1B0AFAEADACABAAA9A8A862
:10358000A7A6A5A4A3A3A2A1A09F9F9E9D9C9C9B30
:103590009A999998979796959594939392919190DB
:1035A0008F8F8E8E8D8C8C8B8B8A8989888887876C
:1035B0008685858484838382828181800000FF07E1
:1035C0000000F87FB0FA80F310FA03F10AD0C3F1DB
:1035D0001D0303F580634FEA41504FEA035202EBAB
:1035E000D12170474FF0000070470000DFF848C15C
:1035F00070B51CEA111E1EBF1CEA13159EEA0C0FC3
:1036000095EA0C0F00F06F8081EA030423EA4C1363
:103610004EEAD47E21EA4C1141F4801143F4801328
:10362000AE44A1FB024CA0FB0365AEF17F7E3619D0
:1036300055EB0C05A1FB034C4CF10003A0FB021C55
:1036400016EB0C06654153F10003094218BF46F022
:10365000010613F4007F0BD14FEA03314FEA053026
:10366000340341EA155140EA16506FF003020AE0B4
:103670004FEAC3214FEAC520F40241EA555140EA1E
:1036800056506FF0020202EB2E4201EB025585EA22
:10369000CE710AD05FEA440C18BF24F0004450F108
:1036A000000041F1000120EAD47040F2FE7C624546
:1036B00000D270BDA84214BF4FF080444FF0404488
:1036C000002E08BF0024BEF1806FA8BFA1F1C04149
:1036D000BDE8704080F282804FF0000001F1C041EF
:1036E00001F0004170479EEA0C0F0CEA131518BF59
:1036F00095EA0C0F06D04FF0000081EA030E0EF0A1
:10370000004170BD00F01CF88900013E00F007B8D0
:1037100000F009B84FEA430C5FEA5C5C08D081EA2C
:10372000030100F05BB84FEA410C5FEA5C5CF6D144
:103730004FF00000014970470000FF070000F87FCC
:103740000EF1020E2EF0030E5EF8046B364205D425
:10375000012A43EB030515F5001F12D8012841EBA0
:10376000010C1CF5001F0CD80ED14FEAD17C15F5C9
:10377000001F0CEB4C0C0CF1020C08BF4CEBD37C83
:1037800004E04FF0080C01E04FEAD37C0CEB4C0551
:1037900026FA05F606F00706B6F1040C06D20EEB83
:1037A000860CBDE870404CF0010C6047DFE80CF07F
:1037B000090B02024FF000414FF00000A1F500217B
:1037C00070BD19461046012851EB010418BFD4F50D
:1037D000001484BF002001F0004170BD0808A0F56E
:1037E00000114FEA310170474FF04070E1EE100ACE
:1037F0007047FCF769BF00000000000000000102F4
:103800000304060708090000000001020304040085
:10381000000800000000000000020001000010008D
:1038200002400000000000A0000000000540000071
:10383000000000C8000000000C4000000000409C98
:1038400000000000194000000020BCBE0000000085
:1038500034400000BFC91B8E00000004B5400000CA
:10386000504BCFD06607E2CF010000006C41000052
:103870003E8251AADFEEA73401000000D9420000C9
:10388000DCB5A0E23A301F97FFFFFFFFB445000010
:10389000FD25A0C8E9A3C14FFFFFFFFFFF3F0000C8
:1038A0000000008000000000FF3F000000000080DA
:1038B00000000000F0380008000000202C0000008C
:1038C000C40100081C3900082C000020AC070000CF
:1038D000E00100081C00000043000000F8FFFFFFAB
:1038E0000C0000000E0000000F0000002E00000081
:1038F00000000000010000000000000000000000C7
:1039000000000000000000000000000001000000B6
:0C39100010000000000000000024F40083
:040000050800018965
:00000001FF
